:020000040000fa
:080000000002040000000000f2
:020000040000fa
:040008002c040000c4
:020000040000fa
:04000c002c040000c0
:020000040000fa
:040010002c040000bc
:020000040000fa
:040014002c040000b8
:020000040000fa
:040018002c040000b4
:020000040000fa
:04001c002c040000b0
:020000040000fa
:040020002c040000ac
:020000040000fa
:040024002c040000a8
:020000040000fa
:040028002c040000a4
:020000040000fa
:04002c002c040000a0
:020000040000fa
:040030002c0400009c
:020000040000fa
:04003400e2030000e3
:020000040000fa
:040038002c04000094
:020000040000fa
:04003c002c04000090
:020000040000fa
:040040002c0400008c
:020000040000fa
:04004400fe030000b7
:020000040000fa
:040048002c04000084
:020000040000fa
:04004c002c04000080
:020000040000fa
:040050002c0400007c
:020000040000fa
:04005400dc020000ca
:020000040000fa
:04005800d4020000ce
:020000040000fa
:04005c002c04000070
:020000040000fa
:040060002c0400006c
:020000040000fa
:040064002c04000068
:020000040000fa
:040068002c04000064
:020000040000fa
:04006c002c04000060
:020000040000fa
:040070002c0400005c
:020000040000fa
:040074002c04000058
:020000040000fa
:040078002c04000054
:020000040000fa
:04007c002c04000050
:020000040000fa
:040080002c0400004c
:020000040000fa
:040084002c04000048
:020000040000fa
:040088002c04000044
:020000040000fa
:04008c002c04000040
:020000040000fa
:040090002c0400003c
:020000040000fa
:040094002c04000038
:020000040000fa
:040098002c04000034
:020000040000fa
:04009c002c04000030
:020000040000fa
:0400a0002c0400002c
:020000040000fa
:0400a4002c04000028
:020000040000fa
:0400a8002c04000024
:020000040000fa
:0400ac002c04000020
:020000040000fa
:0400b0002c0400001c
:020000040000fa
:0400b4002c04000018
:020000040000fa
:0400b8002c04000014
:020000040000fa
:0400bc002c04000010
:020000040000fa
:0400c0002c0400000c
:020000040000fa
:0400c4002c04000008
:020000040000fa
:0400c8002c04000004
:020000040000fa
:0400cc002c04000000
:020000040000fa
:0400d0002c040000fc
:020000040000fa
:0400d4002c040000f8
:020000040000fa
:0400d8002c040000f4
:020000040000fa
:0400dc002c040000f0
:020000040000fa
:0400e0002c040000ec
:020000040000fa
:0400e4002c040000e8
:020000040000fa
:0400e8002c040000e4
:020000040000fa
:0400ec002c040000e0
:020000040000fa
:0400f0002c040000dc
:020000040000fa
:0400f4002c040000d8
:020000040000fa
:0400f8002c040000d4
:020000040000fa
:0400fc002c040000d0
:020000040000fa
:040100002c040000cb
:020000040000fa
:040104002c040000c7
:020000040000fa
:040108002c040000c3
:020000040000fa
:04010c002c040000bf
:020000040000fa
:040110002a030000be
:020000040000fa
:040114002c040000b7
:020000040000fa
:040118002c040000b3
:020000040000fa
:04011c002c040000af
:020000040000fa
:040120002c040000ab
:020000040000fa
:040124002c040000a7
:020000040000fa
:040128002c040000a3
:020000040000fa
:04012c002c0400009f
:020000040000fa
:040130002c0400009b
:020000040000fa
:040134002c04000097
:020000040000fa
:040138002c04000093
:020000040000fa
:04013c002c0400008f
:020000040000fa
:040140002c0400008b
:020000040000fa
:040144002c04000087
:020000040000fa
:040148002c04000083
:020000040000fa
:04014c002c0400007f
:020000040000fa
:040150002c0400007b
:020000040000fa
:040154006403000040
:020000040000fa
:040158002c04000073
:020000040000fa
:04015c002c0400006f
:020000040000fa
:040160002c0400006b
:020000040000fa
:040164002c04000067
:020000040000fa
:040168002c04000063
:020000040000fa
:04016c002c0400005f
:020000040000fa
:040170002c0400005b
:020000040000fa
:040174002c04000057
:020000040000fa
:040178002c04000053
:020000040000fa
:04017c002c0400004f
:020000040000fa
:040180002c0400004b
:020000040000fa
:040184002c04000047
:020000040000fa
:040188002c04000043
:020000040000fa
:04018c002c0400003f
:020000040000fa
:040190002c0400003b
:020000040000fa
:040194002c04000037
:020000040000fa
:040198002c04000033
:020000040000fa
:04019c002c0400002f
:020000040000fa
:0401a0002c0400002b
:020000040000fa
:0401a4002c04000027
:020000040000fa
:0401a8002c04000023
:020000040000fa
:0401ac002c0400001f
:020000040000fa
:0401b0002c0400001b
:020000040000fa
:0401b4002c04000017
:020000040000fa
:0401b8002c04000013
:020000040000fa
:0401bc002c0400000f
:020000040000fa
:0401c0002c0400000b
:020000040000fa
:0401c4002c04000007
:020000040000fa
:0401c8002c04000003
:020000040000fa
:0401cc002c040000ff
:020000040000fa
:0401d0002c040000fb
:020000040000fa
:0401d4002c040000f7
:020000040000fa
:0401d8002c040000f3
:020000040000fa
:0401dc002c040000ef
:020000040000fa
:0401e0009e0300007a
:020000040000fa
:0401e400b203000062
:020000040000fa
:0401e8002c040000e3
:020000040000fa
:0401ec002c040000df
:020000040000fa
:0401f0002c040000db
:020000040000fa
:0401f4002c040000d7
:020000040000fa
:0401f8002c040000d3
:020000040000fa
:0401fc002c040000cf
:020000040000fa
:040208002c040000c2
:020000040000fa
:04020c002c040000be
:020000040000fa
:040210002c040000ba
:020000040000fa
:040214002c040000b6
:020000040000fa
:040218002c040000b2
:020000040000fa
:04021c002c040000ae
:020000040000fa
:040220002c040000aa
:020000040000fa
:040224002c040000a6
:020000040000fa
:040228002c040000a2
:020000040000fa
:04022c002c0400009e
:020000040000fa
:040230002c0400009a
:020000040000fa
:04023400e2030000e1
:020000040000fa
:040238002c04000092
:020000040000fa
:04023c002c0400008e
:020000040000fa
:040240002c0400008a
:020000040000fa
:04024400fe030000b5
:020000040000fa
:040248002c04000082
:020000040000fa
:04024c002c0400007e
:020000040000fa
:040250002c0400007a
:020000040000fa
:04025400dc020000c8
:020000040000fa
:04025800d4020000cc
:020000040000fa
:04025c002c0400006e
:020000040000fa
:040260002c0400006a
:020000040000fa
:040264002c04000066
:020000040000fa
:040268002c04000062
:020000040000fa
:04026c002c0400005e
:020000040000fa
:040270002c0400005a
:020000040000fa
:040274002c04000056
:020000040000fa
:040278002c04000052
:020000040000fa
:04027c002c0400004e
:020000040000fa
:040280002c0400004a
:020000040000fa
:040284002c04000046
:020000040000fa
:040288002c04000042
:020000040000fa
:04028c002c0400003e
:020000040000fa
:040290002c0400003a
:020000040000fa
:040294002c04000036
:020000040000fa
:040298002c04000032
:020000040000fa
:04029c002c0400002e
:020000040000fa
:0402a0002c0400002a
:020000040000fa
:0402a4002c04000026
:020000040000fa
:0402a8002c04000022
:020000040000fa
:0402ac002c0400001e
:020000040000fa
:0402b0002c0400001a
:020000040000fa
:0402b4002c04000016
:020000040000fa
:0402b8002c04000012
:020000040000fa
:0402bc002c0400000e
:020000040000fa
:0402c0002c0400000a
:020000040000fa
:0402c4002c04000006
:020000040000fa
:0402c8002c04000002
:020000040000fa
:0402cc002c040000fe
:020000040000fa
:0402d0002c040000fa
:020000040000fa
:0402d4002c040000f6
:020000040000fa
:0402d8002c040000f2
:020000040000fa
:0402dc002c040000ee
:020000040000fa
:0402e0002c040000ea
:020000040000fa
:0402e4002c040000e6
:020000040000fa
:0402e8002c040000e2
:020000040000fa
:0402ec002c040000de
:020000040000fa
:0402f0002c040000da
:020000040000fa
:0402f4002c040000d6
:020000040000fa
:0402f8002c040000d2
:020000040000fa
:0402fc002c040000ce
:020000040000fa
:040300002c040000c9
:020000040000fa
:040304002c040000c5
:020000040000fa
:040308002c040000c1
:020000040000fa
:04030c002c040000bd
:020000040000fa
:040310002a030000bc
:020000040000fa
:040314002c040000b5
:020000040000fa
:040318002c040000b1
:020000040000fa
:04031c002c040000ad
:020000040000fa
:040320002c040000a9
:020000040000fa
:040324002c040000a5
:020000040000fa
:040328002c040000a1
:020000040000fa
:04032c002c0400009d
:020000040000fa
:040330002c04000099
:020000040000fa
:040334002c04000095
:020000040000fa
:040338002c04000091
:020000040000fa
:04033c002c0400008d
:020000040000fa
:040340002c04000089
:020000040000fa
:040344002c04000085
:020000040000fa
:040348002c04000081
:020000040000fa
:04034c002c0400007d
:020000040000fa
:040350002c04000079
:020000040000fa
:04035400640300003e
:020000040000fa
:040358002c04000071
:020000040000fa
:04035c002c0400006d
:020000040000fa
:040360002c04000069
:020000040000fa
:040364002c04000065
:020000040000fa
:040368002c04000061
:020000040000fa
:04036c002c0400005d
:020000040000fa
:040370002c04000059
:020000040000fa
:040374002c04000055
:020000040000fa
:040378002c04000051
:020000040000fa
:04037c002c0400004d
:020000040000fa
:040380002c04000049
:020000040000fa
:040384002c04000045
:020000040000fa
:040388002c04000041
:020000040000fa
:04038c002c0400003d
:020000040000fa
:040390002c04000039
:020000040000fa
:040394002c04000035
:020000040000fa
:040398002c04000031
:020000040000fa
:04039c002c0400002d
:020000040000fa
:0403a0002c04000029
:020000040000fa
:0403a4002c04000025
:020000040000fa
:0403a8002c04000021
:020000040000fa
:0403ac002c0400001d
:020000040000fa
:0403b0002c04000019
:020000040000fa
:0403b4002c04000015
:020000040000fa
:0403b8002c04000011
:020000040000fa
:0403bc002c0400000d
:020000040000fa
:0403c0002c04000009
:020000040000fa
:0403c4002c04000005
:020000040000fa
:0403c8002c04000001
:020000040000fa
:0403cc002c040000fd
:020000040000fa
:0403d0002c040000f9
:020000040000fa
:0403d4002c040000f5
:020000040000fa
:0403d8002c040000f1
:020000040000fa
:0403dc002c040000ed
:020000040000fa
:0403e0009e03000078
:020000040000fa
:0403e400b203000060
:020000040000fa
:0403e8002c040000e1
:020000040000fa
:0403ec002c040000dd
:020000040000fa
:0403f0002c040000d9
:020000040000fa
:0403f4002c040000d5
:020000040000fa
:0403f8002c040000d1
:020000040000fa
:0403fc002c040000cd
:020000040000fa
:100400004fb820000ebb22000e0188000000000043
:10041000000020000000e000020032000001200087
:100420002002880014000700580107000000e000c7
:1004300003003a00e087240001002000020037009a
:100440000000200001002000810f70000100320038
:1004500014000700000020000000e000020032004d
:1004600000000200000000009a4b020000000000a3
:100470000040da000000fe004440a900a035200042
:100480000000e0000300320000002000a00188000e
:100490004440a800000006008a1f78008b1f7800e7
:1004a0000000060091018800800478000000eb0045
:1004b0001a003700e284440032a0b4009905ba0063
:1004c000e284440032a0b4009906ba00e2844400f9
:1004d00032a0b4000006eb00476fde00fd07b2005b
:1004e000636ce10003003a00ebff07000000eb0043
:1004f0000a003700606ce10004003a00005deb0088
:100500008b05e900fdff3e00040037006168e10053
:10051000010032000086eb000b00070019c7ba008b
:100520001905ba000e04e00003003a000a00e000da
:10053000e0ff3a0000000600fe07b2009e018800be
:100540008a047800f5ff3700395dba008b05e900b1
:100550000c003200295dba008b05e900080032006a
:100560000c00e00003003a00e284440032a0b40032
:10057000f5ff370019ddba008b05e900faff3a00f4
:100580008904e800e184440032a0b40000000600c1
:10059000000000000000000000000000000000005b
:1005a00000000000000000000000fa008580a900a3
:1005b0000080fa0000400600809fbe003400f80072
:1005c00000002000a00188000200fa008560a90058
:1005d00030118000004f780030c5b3009e40780095
:1005e00080cf500002003a00100020002042880016
:1005f00060c5b3009e40780080cf500008003a00ec
:1006000040012000404d880040012000604e8800dd
:1006100020032000d04288001000200020428800e3
:100620002622ef00000000001111800000202000b1
:10063000008060000000e000fbff3a001e00fb00ad
:10064000201188000080fa003400f9004f00be003d
:1006500000400600809fbe00829fbe000000fa009e
:100660008b40a900210f8000e0ff2700808f500001
:1006700009003e000240800013408000000020007e
:1006800011002000020040008380480000408800e4
:1006900011408800080037000240800013408000ad
:1006a00000002000f1ff2f0002004000838048007e
:1006b00000408800114088000080fa004f01be0011
:1006c0004f00be0000400600809fbe00829fbe001b
:1006d0000000fa008d60a900a10f8000e0ff270054
:1006e000808f500009003e007240800083408000ef
:1006f000000020001100200002004000838048001c
:1007000070408800814088000800370072408000f7
:100710008340800000002000f1ff2f000200400015
:100720008380480070408800814088000080fa0083
:100730004f01be004f00be0000400600809fbe007b
:100740000000fa00101a80008000eb008041880051
:100750009141880091c0a9000080fa004f00be00be
:1007600000400600809fbe000000fa00201a8000b2
:100770008000eb00a0418800b1418800301a800061
:100780008000eb00c0418800d141880091e0a900c1
:100790000080fa004f00be00004006003400f80060
:1007a000881f780008002000a80188004f04780006
:1007b0000000fa008880a9000080fa003400f900e7
:1007c00000400600801f78000000fa008460a90045
:1007d000e0428000e80f500004003c00e04280004e
:1007e0000000e800e0428800010037005c28ef00cc
:1007f0000080fa004f007800004006003600f80044
:10080000809fbe00829fbe00849fbe00869fbe0068
:100810000000fa0084e0a900c0c4b3004e23070022
:1008200020c5b3004c230700c0c4b3001523070044
:1008300020c5b30013230700571d07000080fa00ee
:100840004f03be004f02be004f01be004f00be006e
:100850003600f900004006000040da000000fe000b
:100860000a00fa0011002000b1bf9f00c0bf9f0026
:100870006a8057009d0907004fb897000080fa0072
:10088000000006000a00fa00e20f500034003e00ab
:10089000105c8000e10f500003003200e20f5000b6
:1008a00011003a000c003700032220000300e00092
:1008b00001003a000040da002002e20002003500a8
:1008c0002822ef0021e2a8002342ab000d003a00ed
:1008d0002342a8000b003700032320000300e000a0
:1008e00001003a000040da003002e2000200350068
:1008f0003822ef0031e2a8003342ab0001003a0099
:100900003342a800820178000b0037003102fb005f
:10091000e10f500004003a002322ab00feff3a0032
:1009200024118800030037003322ab00feff3a0099
:10093000a41188008301e9000300e000f3ff3a00fe
:10094000e10f500003003a002302ab00feff32002b
:100950000b0037003302ab00feff32000800370007
:1009600033002000b3bf9f00c0bf9f00d1bf9f00d6
:10097000e2bf9f006a8057005e0907006fb99700c9
:10098000020078000080fa00000006000000050068
:100990000001be00220007000470a70003f0a100c0
:1009a0006509b100160032000d0035006828e1002d
:1009b00006003500f0ff2f00f1ff27000300e000e4
:1009c00013003b000100280000000500000040006b
:1009d000818048008502e900fcff3a0008003700ea
:1009e000f88f420002003c008000eb000000050090
:1009f0008100d1000080d3008502e800fcff3a00ae
:100a00000300e00002003b0060001000e0801800de
:100a1000000006004f89de008201780042023700a4
:100a2000c70ade00f107b200f50fb200080032007d
:100a3000e1cf4200020032000170a0002400050056
:100a4000810f700001003200040805004400050019
:100a5000810f700002003a00140005008502e900d1
:100a60000000400081c04800fcff3b000170a00076
:100a700024000500038368000700280007036300c3
:100a8000470ade000480a100c71ade000580a1002d
:100a9000f70f20000720e100420032000728e100a4
:100aa00040003200889fbe008a9fbe008c1f7800e5
:100ab000f107b200f307b2000400e0006400320066
:100ac0000170a0000500e000680032000370a00083
:100ad00085054200eb07b1000204b8000302b8002c
:100ae0008484440060854a00020ab800848444007b
:100af0000a854a00030ab8000405450004003300d3
:100b00000804d0008984d2000a85d2008b05e90050
:100b10006158e1003d00350002102000090161002c
:100b20000308200089816100f707200087836400a3
:100b300008867300c84cde00c853dd00878474004b
:100b40004855de000300e000060032008203760014
:100b5000040032008904e80060054d000a88a30003
:100b60000c003a00f70f20000758e10044003d0058
:100b70000a70a100c75ddd000a8575008a00730058
:100b8000090078004f0678004f05be004f04be00f4
:100b9000000006000a05d1008984d3008b05e80017
:100ba000f0ff3700881f78000604780090000700e7
:100bb000070278000001fd008101fd008c000700a4
:100bc00087027800850372000778a30005003200d1
:100bd0000001fd008101fd009f0007004f04780027
:100be00000000600850372000748a30003003200de
:100bf000f0ff2f00f1ff2700f8ff37000000200072
:100c000001f8270088807000f4ff37008801780021
:100c10004848dd00808171004848de00c850dd0092
:100c200001007000c850de00060478000b01780057
:100c30001600070088807000d2ff37000500e00032
:100c400005003200170020003a0007009dff370022
:100c500081037000f9ff3a00860078004f067800a3
:100c60004f05be004f04be00000005008303710065
:100c7000f9ff3200270020002e00070094ff370004
:100c800001f8270086807000f4ff37000100e000c3
:100c900026003200610111007810e10023003c00c1
:100ca0006022b8007010e100040035008002780076
:100cb000010078008000eb00700151000200e000ac
:100cc0000900340070031100062add00822ade00cc
:100cd0008603dd00878272000200de00860bdd00e5
:100ce000070070008208de0084817100f4ff270095
:100cf0000482620084817100040028008482620002
:100d00006102600005f0a600000006000482710088
:100d1000070032000000e800e08048000000060004
:100d20000002be006000b800efff37006000b800ae
:100d300000000600889fbe000004eb006138e1005f
:100d400016003a000100e00008003a00c800de008a
:100d50004800dd00880020000100e00003003a00a8
:100d6000c800de004800dd00680444008184cf0034
:100d7000e9845400060034008908dd00f083140083
:100d80008703de00878070000900dd00090444004d
:100d9000610214004f04be00000006000300e000e2
:100da00008003a00c811de004811dd00880020006c
:100db0000300e00003003a00c811de004811dd0026
:100dc000680444008384cf00e984540006003400a2
:100dd0008919dd00f08314008713de00878171001c
:100de0000911dd0009044400e1021400e9ff3700a5
:100df0002700200001f0a70017002000470bde00ad
:100e0000f60fb200040032000643e8000a00320088
:100e10004702b3000000060001037800f607b200a5
:100e20000603700002003a000703b300000006004a
:100e30008702b3000000060001037800f607b20045
:100e400006037000020032000770a00000000600d8
:100e50000760a000000006000478a3000400320030
:100e60000578a300030032000168a30001003a00e6
:100e70000200be000160a00000000600889fbe00c6
:100e80008a9fbe0030044200b0844a0030054b0007
:100e900090854b006000b1000898be000a90be002b
:100ea0000440e10005c8e10006d0e10007d8e100f8
:100eb00002003100680040001008e8004f05be0045
:100ec0004f04be0000000600889fbe008a9fbe003f
:100ed0003004be002005be000418540005985c00d4
:100ee00006185d0007985d00110020000440e10035
:100ef00005c8e10006d0e10007d8e1000100390093
:100f00008000eb00108810004f05be004f04be00ab
:100f1000000006001200fa00889fbe008a9fbe00f3
:100f20008c9fbe00e0b79f00f1b79f0082bf9f007b
:100f300093bf9f000605be000404be000000eb0046
:100f4000d0b79f00c0b79f00b0b79f00a0b79f0069
:100f500090b79f00000678005fb19700cfb0970070
:100f6000820141003fb097000200e00004003d0014
:100f7000370007007e805700c0ff070003003700de
:100f8000330007007e805700cfff0700dfb69700d1
:100f90000d00e0000c0035006fb29700ffb2970023
:100fa0000fbb97009fbb970010002000010020009e
:100fb0006011b800000272008182720002037300a7
:100fc000838373001b0007000c06e8000104200067
:100fd000810f5600e0ff3a000d00e00004003d00e4
:100fe0000802be000a03be007e805700a3ff070070
:100ff0005fa897000000e00005003a001fb29700cc
:10100000afb297003fb39700cfb397000900070036
:101010006fb09700ffb097000fb997009fb9970086
:101020004f06be004f05be004f04be000080fa0010
:10103000000006000100070000000600a4b79f00a2
:10104000b5b79f00c6b79f00d7b79f000000060046
:101050004f09de0082817100b3b79f004f01de00af
:101060008180400082807000a1b79f008fb0970000
:101070004f09de00000040000200700090b79f00a2
:101080007fa897004f01de008180400082807000c1
:1010900081b79f000d0007004f3ade0000004000be
:1010a00004007000f0af9f00080007000402420037
:1010b00085824a0006034b0087834b00dfff070051
:1010c0000802be000a03be00000006002fb297000f
:1010d000bfb297004fb39700dfb397000000060040
:1010e000881f780018002000881f780089ff0700fb
:1010f0008f87e9004f04780000000600801feb0096
:1011000084ff07008f87e90000000600889fbe006b
:101110008a9fbe00e00f5000e08f5800e00f59009a
:10112000e08f59000c003d006044b8006055b800e5
:101130000000540081805c0002015d0083815d003d
:10114000180020001500070008003d0018000700e7
:101150000004eb00050037000004eb000f0007005f
:1011600002003d001200070018002000dcff07000d
:101170000800e000060032006022b8006033b800ca
:101180000000520081805a0002015b0083815b00f5
:101190004f05be004f04be0000000600e00f5200e5
:1011a000e08f5a00e00f5b00e08f5b00000006005c
:1011b0006044b8006055b8000402540085825c00a9
:1011c00006035d0087835d0000000600889fbe0067
:1011d0008a9fbe008c1f7800e00f5000e08f5800ff
:1011e000e00f5900e08f59000d003d006044b80049
:1011f0006055b8000000540081805c0002015d0071
:1012000083815d001c0020000820e10009a8e100a6
:101210000ab0e1000bb8e1000d003d000800370006
:101220000006eb00e00f5200e08f5a00e00f5b0079
:10123000e08f5b0006003d006044b8006055b800d8
:101240000402540085825c0006035d0087835d0014
:10125000aaff07000c00e000060032006022b80080
:101260006033b8000000520081805a0002015b0028
:1012700083815b004f0678004f05be004f04be001f
:1012800000000600889fbe008a9fbe008c1f780069
:101290000006eb00e00f5000e08f5800e00f59000f
:1012a000e08f590007003d006044b8006055b80069
:1012b0000000540081805c0002015d0083815d00bc
:1012c0001c002000e00f5200e08f5a00e00f5b008e
:1012d000e08f5b0007003d006044b8006055b80037
:1012e0000402540085825c0006035d0087835d0074
:1012f0000c00a200710007000c00e00006003200a4
:101300006022b8006033b8000000520081805a00ab
:1013100002015b0083815b004f0678004f05be0031
:101320004f04be0000000600881f78000304780008
:101330000300e00007003d0060001000e08018009e
:1013400060011900e081190002003b0001f02d004e
:10135000030037000400070008f0a70001f0a00018
:101360004f04780000000600889fbe008a9fbe00e0
:1013700000827000040271000482710026003200b5
:101380000004be000200be006011b8006b0920001e
:10139000950220000182cf000a0039000541b1000a
:1013a0000082cf00070039000541b1000982cf005b
:1013b000040039000541b1000882cf000100390066
:1013c0000541b10005425200120032000a003b0004
:1013d00082817100610164008100d1000080d3002e
:1013e0008984d3000884d3008b05e8000442e80018
:1013f000f7ff3a00070037000804440089844c00d6
:1014000000004800818048008b05e9000442e900a3
:10141000f9ff3a00030007004f05be004f04be006d
:101420000000060081002000618055000b003d0097
:101430000b00200061fe2f000100e1001d003400c0
:1014400082817100610164008904d1000884d300a5
:101450000000e800faff3a0071002000610064001b
:1014600003007000020060000900320061044400c3
:10147000e0844c000988a500050032008b05e800d7
:101480006808e10002003a008904d1000884d30012
:10149000f20f20000258e10005003d00c75ddd00ad
:1014a000f907b20089807500080078000000060086
:1014b0000bf827008b00780000000500889fbe0015
:1014c0008a9fbe008c9fbe000404b8000506b800c9
:1014d0008904460060854e000606b8000a054600ed
:1014e000e0854e000706b8008b054600040eb800e4
:1014f000890446000a854e00e0854d00050eb800bf
:101500000a0546008b854e00060eb8008b05460086
:101510000416b8000a0546008b854e000516b80073
:101520008b054600041eb8008b0546000800be006f
:101530000a01be004f06be004f05be004f04be00ac
:10154000000006000000fa0068815700cfb897003d
:1015500000558000100078002e0207000080fa007d
:1015600000000600e00037000000fa006881570024
:10157000cfb89700005580001000780025020700c2
:101580000080fa000000060049000700a1000700e3
:10159000520107007a010700d3000700a0020700ec
:1015a0004b0237000000fa0068815700cfb897005f
:1015b000260207000080fa00000006003c00070039
:1015c00094000700450107006d010700c6000700f1
:1015d000930207003e0237008001780002003700c6
:1015e000b15978000201e9000200e000fcff3a0076
:1015f000000006000155800091007800da053700f0
:1016000001558000910078002a0507001100200094
:101610000000e000050035000055800090007800d3
:10162000a0002000d0050700cf00de000100ea0086
:10163000000006000000060060aa2000000006006e
:10164000fdff0700205588001055880000000600a7
:1016500080007800040037003104e00002003a0006
:101660000000510000000600010178000108a300fd
:10167000f9ff3a008101780031017800f4ef2f0082
:10168000020242000281ea0002016200040828000e
:1016900004016100f7ff3200830078000101780047
:1016a0003104e000fdff3a00000051000000060098
:1016b000ec874700889fbe008a9fbe008c9fbe00bb
:1016c0008e1f78000006780001047800180790004b
:1016d0002805900098067800cdb79f00b8059000c7
:1016e0003202be002203be000400be000601be009e
:1016f0004f18de006011b8008000eb00d0b79f00eb
:10170000e1b79f00f2b79f0083bf9f00800478007d
:101710000900e000060032006000b8006011b80067
:10172000040250008582580006035900878359003f
:101730000e00e000020035000d10a100cdb79f00a3
:101740000900e00005003a004fb097000028a30010
:1017500002003a000038a300020032008a00e900cb
:10176000010037008a007800f8815700a2002000ad
:1017700008007800860007000900e00003003a0036
:10178000cfb097000128a300080032000000e90054
:1017900000814500b1c2b3000900e0000100320041
:1017a000d1c2b30001497800050037000138a30019
:1017b000030032000000e90001c2b3008175780027
:1017c000480190000201e9000001510080804500bd
:1017d0004fb297008a0178000c0078005b02070086
:1017e0009c0090000188a300040032009800900043
:1017f000810f500001003d00010078004f07780084
:101800004f06be004f05be004f04be00cf00b10022
:10181000000006000200fa00889fbe008a9fbe00fa
:10182000800578000104780002007800180190001b
:101830002805900098007800b1bf9f00b804900080
:101840000200e000020035000110a100b1bf9f00be
:10185000ea815700820020008a0078003002be0032
:101860002003be0008007800490007003fb9970038
:10187000f0006100030032000000e90001c3b30082
:10188000817478003fb99700e800610003003200de
:101890000000e90001c2b3008174780048019000a3
:1018a0000201e90000015100808044003fba970026
:1018b0008a0178000b007800240207009b0090004a
:1018c0000188a3000400320098009000810f5000ae
:1018d00001003d00010078004f05be004f04be002e
:1018e0000080fa0000000600ea874700889fbe00db
:1018f0008a9fbe008e1f78000004780003007800e5
:101900007287570084e2260055c72600049fbe0058
:10191000c3962200030f78006c875700004feb003e
:1019200011059000a1049000910578000200e000ec
:10193000020032000207780001003700728757006a
:101940000000e00002003a000e00780040ff0700af
:101950000a00e000030035008a0f50000100360045
:101960000a0078000b0278008901780000017800f5
:101970008e00780008007800f40107004f07780017
:101980004f05be004f04be00af00b10000000600ce
:10199000f4874700889fbe008a9fbe008c9fbe00d0
:1019a0008e1f78000605be000404be0081bf9f00a4
:1019b00082b79f00f3b79f00b0009000e1b79f008f
:1019c0001301780092b79f009006900040009000ad
:1019d0000000e900000678000d00e00001003d0075
:1019e0001d0020008040eb00efb19700817178006e
:1019f0001e0020001f0037000c06e9000fb0970002
:101a0000cf80de006109b900a0b79f00b1b79f0089
:101a1000c2b79f00d3b79f000203be000002be0002
:101a20000800be000a01be00b4fd070000077800f0
:101a30000e4078000043b000efb0970080707e0049
:101a40008d06e9000fb997000201e90082bf9f00ef
:101a50002fb29700bfb297004fb39700dfb3970044
:101a60000800be000a01be009dfd07000205be0081
:101a70000004be000c00e0000d003400e00f540034
:101a8000e08f5c00e00f5d00e08f5d00daff3a0060
:101a90000d00e000d8ff3c008fb997000300e00084
:101aa000030034001fb097000018a300d2ff3a00d3
:101ab0000e00e00002003a00ffb097001140a100c4
:101ac0000c0078004f0778004f06be004f05be009f
:101ad0004f04be004f01b100000006000200fa00f2
:101ae000889fbe008a9fbe00000578000104780030
:101af0000200780018019000a80490009800780077
:101b0000b1bf9f00b80590000200e0000200350060
:101b10000110a100b1bf9f00ea815700a200200080
:101b2000890078003002be002003be000800780063
:101b300097ff0700480190000201e90000015100f1
:101b4000808045003fba9700890178000a0078003c
:101b50007e0107009a0090000188a3000400320073
:101b600098009000810f500001003d0001007800b6
:101b70004f05be004f04be000080fa0000000600c2
:101b8000fa874700889fbe008a9fbe008c9fbe00d8
:101b90008e1f7800800478000104780082057800a8
:101ba000180190002805900018077800b8009000f0
:101bb0000200e000020035000e10a1000100370015
:101bc0001200200070006700e0b79f00090032009b
:101bd0003b02be002b03be00e00f5200e08f5a0014
:101be000e00f5b00e08f5b00020032008a86e900b4
:101bf000010037008a067800e8026700f5b79f0009
:101c0000010032008d06e9003b02be002b03be003e
:101c1000e4af9f00f5af9f0086b79f0097b79f0086
:101c2000480690000c06e9000040eb0080707e0042
:101c3000efb297007fb297008903780081047800a3
:101c4000d8af9f00020478008bbf9f008a05780000
:101c5000034578002a0037000c06e9006fab9700b7
:101c60006f006300e90f500002003c000003b00069
:101c7000010037007005b0000a03fb001604b10034
:101c8000f90f53000c003e00000378000650a0003e
:101c90001606b100f90f530007003e00b4b79f00cd
:101ca000a5b79f00c7b79f0041040700cfb39700b7
:101cb000afb297003fb2970080747e000804e9003d
:101cc0008d06e9006fa89700ffa897000fb1970055
:101cd0009fb19700460020008301d1000281d3000c
:101ce0008180d3000080d3000603e900faff3a00a8
:101cf000e0af9f00f1af9f0082b79f0093b79f00b6
:101d0000e10f56000f0034006fa89700ffa897005e
:101d10000fb197009fb19700e00f5000e08f58007f
:101d2000e00f5900e08f5900cbff3a000800e000b7
:101d3000c9ff3c000d00e000020034000e18a300b3
:101d4000c5ff3a0089007800f4b79f008704780047
:101d50005fac97008a4178000b0578008fbd970033
:101d60000500e000100032003b02be002b03be0065
:101d7000e4af9f00f5af9f0086b79f0097b79f0025
:101d8000e00f5200e08f5a00e00f5b00e08f5b0035
:101d9000050032000c06e90083707e000c06e900a5
:101da00000c3b30080707e00ffb297000500e00022
:101db000030032000c06e90000c2b30080707e0010
:101dc000480190000201e9000c0151008c804000a4
:101dd0000e0278008a01780009007800db00070015
:101de000990090000188a300040032009800900040
:101df000810f500001003d00010078004f0778007e
:101e00004f06be004f05be004f04be00af01b1003b
:101e1000000006000200fa00881f78000004780025
:101e2000e2bf9f0064815700080078008602070027
:101e3000980090000148a300010032000080eb00f0
:101e40004f0478000080fa0000000600820178004c
:101e500001017800f1ff2700e0033700889fbe00f2
:101e6000000478004800900082047800808f5400bd
:101e700001003600800478000901780058009000c5
:101e8000d5fd07005800900009004000500498005c
:101e9000c800900089845000490498000048eb0075
:101ea0004f04be00000006001000780075fa3700ed
:101eb000900190000388a30001003200e7ff370083
:101ec0000348a30001003a00f7ff070000000600e6
:101ed00084082000848f50001d0032000d003c005b
:101ee00014082000848f50002700320002003c00bc
:101ef000040820000400370024082000848f5000cc
:101f00003400320044082000848f500043003a001f
:101f100036003700040a2000848f5000270032006a
:101f200004003c0004092000848f50003b003a006c
:101f300028003700020c2000828f50002f00320052
:101f4000020f2000828f500034003a002b0037002f
:101f50009380e9000200e00005003200810978006a
:101f60001102fb00cfa2de00612bb9002800370070
:101f700081097800114278000482fb008002eb00a6
:101f80006033b8002200370013027800e4005200ea
:101f90000200e00005003200810978001102be0055
:101fa0004fabde0086037800190037008109780006
:101fb0001102be006033b800150037009380e900bd
:101fc0008109780011027800cfa2de00612bb900f0
:101fd0000f00370093027800e880520081097800f2
:101fe0003102be002103be00090037009380e900e2
:101ff0000200e00002003200f1ff37009380e900a8
:1020000081097800110278008002eb006033b8008b
:102010000498be000690be001000050000000500f8
:1020200044082000848f50002500320008003c0046
:1020300014082000848f500014003200240820006f
:10204000848f500024003200040820000c00370068
:1020500004092000848f50001f00320004003c005f
:1020600084082000848f500024003a000e003700be
:10207000040a2000848f500011003200040c20005c
:10208000848f50001d003a000d0037009380e90056
:10209000810978009100780001087800cf91de0076
:1020a0008288be00140037009380e900810978001f
:1020b0009100780001087800824878000e0037000f
:1020c0009380e90081097800910078000108780088
:1020d00082087800080037009380e90081097800c1
:1020e00091007800010878006112b900612bb900f5
:1020f0008498be008690be00100005000000050018
:10210000889fbe0000047800480090008204780098
:10211000808f5400010036008004780009017800a7
:10212000580090002cfd0700580090000900400066
:1021300050049800c8009000898450004904980019
:102140000048eb004f04be0000000600f287470085
:10215000889fbe008a9fbe008c9fbe008e1f7800a5
:102160008004780001057800020478008305780077
:102170006107620002003a008b0f5400080039002a
:10218000080178008a0078000900780048ff0700fd
:102190008b0f540002003900880578001e003700bc
:1021a000088655000c017800f00f5600010036003b
:1021b00002012000010220007e8057006f0207000c
:1021c0008c0678000500370002012000fe805700d1
:1021d0000900780036ff0700f0865600ef8f5600a2
:1021e000f9ff3e004461de0000ff2f000091b900be
:1021f00002014600fe805700090078002cff07000e
:102200000e00e00004003a00080178008a0078001f
:102210000900780026ff07000b0078004f077800c0
:102220004f06be004f05be004f04be002f01b10097
:102230000000060000000500000005000000050089
:10224000000178000040eb008080fb0081804000ae
:10225000a3b6200063c278000404e00003003a0043
:10226000b0b6200060c0780000000600920178003f
:10227000934f520004003a00b0b6200060c07800ce
:102280000309e800010037000040e800ea4f500071
:10229000edff360000000600f6874700889fbe006d
:1022a0008a9fbe008c9fbe008e1f780000057800bc
:1022b0000104780083057800040678000000eb0034
:1022c000c0b79f008080eb00d1b79f00e0b79f00b0
:1022d000f2b79f000008200080bf9f0098007800a0
:1022e000010078008004eb00010037008904e80059
:1022f000304178000204e0000300320053c2b30012
:10230000834f5100f9ff3a000900e0000400320059
:10231000090178000a007800e5fe0700188c4400e7
:102320001807780050c2b3009e4f10003f013a00da
:102330000e07e8000e0c780010003700cfb09700b1
:102340000100a0000b003700cfb097000110a000e3
:1023500008003700cfb097000120a000050037002b
:10236000cfb097000130a00002003700cfb0970037
:102370000140a000c1b79f00000ce80018007800e1
:1023800090407800b2c2b30082cf5000f1ff32001b
:1023900007003c0002c2b30082cf5000f0ff3200c1
:1023a00032c2b30082cf500007003a00efff37007f
:1023b000d2c2b30082cf5000e0ff320002c3b300ac
:1023c00082cf5000e0ff3200a2c2b30082cf5000a3
:1023d0000d003a00000ce8001c80e900000e7800b7
:1023e00010007800e0b79f000000e0000f003d0003
:1023f000cfb097000100a200c1b79f000000ea0023
:10240000e0b79f000900370084010700e0b79f0094
:1024100001003700000ce800180078009000fb0075
:102420000103b100e98f5000faff36004fb097006a
:102430000008a300020032000010a100c0b79f00f6
:1024400018007800e1c2b30090cf100016003a00e7
:102450008000eb00d1b79f000000e800000c78007e
:10246000a1c2b30090cf100006003a00000ce800b3
:102470001c80e900000e780010007800d0b79f00a3
:102480000900370065010700d0b79f000100370041
:10249000000ce800180078009000fb000103b10078
:1024a000e98f5000faff36000800780064ff07004b
:1024b00080467800180078001000fb003502070005
:1024c00091062000810f50003800320012003c00bd
:1024d00041062000810f5000340032000a003c0009
:1024e00011062000810f500020003200310620002c
:1024f000810f5000a000320051022000810f5000d7
:10250000bc003a00b400370071062000810f500073
:10251000b8003c008800370001072000810f500000
:102520005c00320007003c00e1062000810f5000f3
:102530007a003200f1062000810f5000ad003a0011
:102540003900370051072000810f5000270032006a
:1025500081072000810f5000420032003107200027
:10256000810f5000a3003a008f0037008d80fb00e0
:102570000c01780000fe2f000f0040003c02070015
:102580000000e000a800320018007800000ce8000d
:102590009041780002fe2f000f014100f8805700a3
:1025a0000a00780024ff07000e0037008d80fb0032
:1025b0008c0178001200200000fe2f000f00400068
:1025c00043fe07000000e00097003200180ce8000e
:1025d00002fe2f000f014100f88057000a0078002a
:1025e00033fc070080844400900037008d80fb009e
:1025f0008c0178000001eb0000fe2f000f0040006e
:1026000033fe07000000e00087003200180ce800ed
:1026100002fe2f000f014100f88057000a007800e9
:102620002efd0700efff37008d80fb008c01780046
:102630000001eb0000fe2f000f00400024fe070009
:102640000000e00078003200180ce80002fe2f00c5
:102650000f014100f88057000a0078006dfc070068
:10266000e0ff37008d80fb008c0178000001eb005b
:1026700000fe2f000f00400015fe07000000e000e4
:102680006900320018007800000ce80090417800e2
:102690001c0037008c0178000001eb00010f2000c6
:1026a00000fe2f000f00400009fe07000000e000c0
:1026b0005d003200180ce8000fb097009fb0970043
:1026c0002fb19700bfb19700e00f5000e08f580086
:1026d000e00f5900e08f590009003a00cfb597008c
:1026e0006fb4970020b62000d9fb07000b027800da
:1026f000880178000001780021b6200047003700eb
:1027000083c7b30002fe2f000f014100f88057007d
:102710000a0078001afd0700b2ff37000b81440061
:102720008d80fb008c01780000fe2f000f00400020
:102730003bfe07003c0037008d80fb000c01780059
:1027400000fe2f000f004000c90107000000e0005c
:102750003500320018007800000ce8009041780045
:1027600002fe2f000f014100f88057000a00780098
:10277000b1fe07009bff370000c8b30080cf5600b2
:1027800029003a00180ce8001c80e900000e7800cf
:1027900010407800e0df9f0013002000e2fd2f00d2
:1027a0000f0141000800370000c8b30080cf560079
:1027b0001d003a00180ce8001c80e900000e7800ab
:1027c0008001eb0010017800f88057000a007800c3
:1027d00045fc070083ff370000c8b30080cf5600d8
:1027e00011003a00180ce8004fb29700efb19700c3
:1027f000080037000e0c78000000eb00c0b79f0007
:10280000e0b79f000080eb00d0b79f000002eb0014
:10281000840178001200200081b620000a007800b0
:102820004afe07006fff3700180ce8000900780027
:102830004f0778004f06be004f05be004f04be0094
:102840006f01b100000006008200fa00889fbe0000
:102850008a1f78000005780082047800c13f9f003d
:102860000004eb00100037000902780088017800ae
:10287000a2f72f000f01410081f72f008f80400049
:102880000a00780084fe070008004000880f50000e
:1028900004003d00b0042000005c88000084eb00d0
:1028a00004003700000478004f3897001004e0005f
:1028b000edff3a00080078004f0578004f04be0095
:1028c0000080fa0000000600889fbe000004be00e1
:1028d0000000eb000800e000180032001800900033
:1028e0000058a3000d003200d8009000680090004e
:1028f000808f500009003600b80990000001eb00fd
:10290000820078000800780003000100d8009000e1
:102910000080eb000100e000080032000000eb0046
:10292000200c980060049800500498000900e00012
:102930000200320018007800c9f707004f04be00fb
:1029400000000600889fbe000004be000000eb00ef
:102950000800e00025003200180090000058a30095
:1029600011003200d800900068009000808f500065
:1029700009003600b80990000001eb0082007800e1
:102980000800780003000100d80090000080eb00f0
:102990000100e000150032000000eb00200c980060
:1029a0006004980050049800780a90000810900085
:1029b000800f52000600310000025200110020007a
:1029c000cfa2de00612bb900180078006500070077
:1029d0000000eb0000149800700c98000900e00063
:1029e00002003200180078009df707004f04be0077
:1029f0000000060080007800100020000202200085
:102a0000828f500004003200e9805000e48f5000b3
:102a1000010036000000eb0000000600889fbe00a9
:102a20008a1f7800000578000a047800984478002e
:102a30000805e8000900fb00eeff07000000e000c9
:102a4000f9ff3a00b0c2b30080cf54000500320055
:102a5000d0c2b3008000eb0080cf540005003a00e4
:102a6000020037008000eb00010037001100200059
:102a70000804e8000000eb00030037006a02b90018
:102a8000020052000003b0003801fb0003fd2f00dc
:102a900082814100e98f5100f8ff36000100e0001b
:102aa00001003a000000ea004f0578004f04be0024
:102ab00000000600889fbe008a1f7800800478000e
:102ac0000105780009007800e1fa070000047800a9
:102ad0008a017800080178001100200009007800c0
:102ae0000a000700800078000080eb00888f50000b
:102af00001003a000000eb004f0578004f04be00d3
:102b000000000600100078005ef73700889fbe00c6
:102b10008a9fbe00810478000204780009c5b900cc
:102b20000900e00001003a000004eb000a0178000f
:102b30008000780003007800dbfc0700800078004c
:102b40008a8f500003003200110009008980d800ec
:102b500000047800080078004f05be004f04be0056
:102b600000000600a0fd2f00f1ff2f007f000700ee
:102b70004f89de008201780000000600889fbe00b9
:102b80008a9fbe00800478000200e0005b003200f3
:102b900001407800814c780082814400f1f99f0067
:102ba000e20f51005500360091449800a14498006e
:102bb000e1f99f00d1f99f00e60f51004f00360068
:102bc000b1449800c1f99f00e80f51004b00360056
:102bd0000905ea00630565000a8444000a055100fe
:102be000c1ff2f00010565000080fb008000eb00a5
:102bf0001210200013102000df000700008cbe0020
:102c00000a01440060b99f0071b99f00e80f5500a8
:102c10003a003600200498003104980040049800df
:102c20005104980020b99f0031b99f0040b99f001e
:102c300051b99f00f80f550030003600600498002d
:102c400071049800000c9800110c9800200c98005a
:102c5000310c9800400c9800510c980020b19f0056
:102c600031b19f0040b19f0051b19f0060b19f0002
:102c700071b19f0000b99f0011b99f006401640009
:102c80007801410002044400020555006011b800bb
:102c90000203be000002be000403be006022b800b2
:102ca0000000720081807200020173008381730052
:102cb00010003700009cbe000294be004004980043
:102cc000510498006204980073049800000c980066
:102cd000110c9800220c9800330c9800400c9800be
:102ce000510c9800620c9800730c98000a02b10015
:102cf0000802b000ff0f5500eeff3e00090078000b
:102d00004f05be004f04be00000006000200fa009e
:102d100081017800e0ff9f00930090000188a300ec
:102d200005003200d3009000805878000080fb003e
:102d3000d10198000a003700120020008f80e900be
:102d40000300780058fc0700800078000080eb004a
:102d50000100e00002003200eff897000180fb0064
:102d60000080fa0000000600e8ff370002002f0094
:102d7000f3ff2f00820f5000838f580004003600ad
:102d80000000ea00005c88000080eb008080eb001f
:102d900000000600f1fb2f0080804000f98f5000fa
:102da00001003e000050a00000000600f9ff3700bf
:102db000f1f92f0080804000f98f500001003e00a3
:102dc000f005b20000000600f9ff37000000060021
:102dd0001bfa0700fdff0700fcff3700f2874700e2
:102de0008e1f780002027800030178000000e000e6
:102df0000200320000077800010037007287570098
:102e00008002eb000100e000010032008102e900d5
:102e100070805700060009000018eb000080eb00ee
:102e200080bf9f002310200093bf9f00aebf9f0074
:102e3000b1bf9f00c5bf9f000100e00003003d003f
:102e4000b1042000015c880006003700004feb0051
:102e5000eebf9f00debf9f008400780070805700a7
:102e6000ecfb07004f0778002f01b10000000600bf
:102e7000881f78000004780000082000808f500030
:102e80001700350010082000808f50000b00340020
:102e900030082000808f500011003a009200780026
:102ea00068805000000978003002be002003be0098
:102eb000049cbe000694be00070037009202780012
:102ec00064805200000978001000be000b0007006b
:102ed000009cbe000294be001000200001003700dc
:102ee0000000eb004f0478000000060000c0da008c
:102ef0000000060000c0da00000006008103780030
:102f0000c7f607000001be006000b8000478a30007
:102f100013003a006220e10015003e000d00390068
:102f20008301d1000281d3008180d3008301d100cd
:102f30000281d3008180d3008301d1000281d300bc
:102f40008180d3000538b000c42add00f300b20050
:102f50008381720007f0a70003f0a00000000600c4
:102f600083ff2700020020006110b900f9ff37003d
:102f700003ff2700f7ff3700020ab900001bb90062
:102f80000200b800810042008100430000000600fa
:020000040000fa
:102f90005b20000020000000202000002000000036
:102fa000202d0000200000005f2000002000000015
:102fb0005d200000200000002f720000205800005b
:102fc0003a25000033640000205900003a25000033
:102fd00033640000202000002f7400000065000012
:102fe0006e6400000051000075650000756500000a
:102ff0002069000073200000667500006c6c000002
:10300000210000005175000065750000652000007a
:1030100069730000206500006d7000007479000085
:103020002100000025640000200000000d000000c9
:103030000d2000005175000065750000652000003e
:1030400069730000206500006d7000007479000055
:10305000210000000d200000517500006575000082
:1030600065200000636f00006e740000656e000054
:103070007473000020280000667200006f6d00006d
:1030800020660000726f00006e7400002074000063
:103090006f2000007265000061720000293a000094
:1030a00000280000256400002c200000256400009a
:1030b000292000000020000028250000642c0000ca
:1030c00020250000642900000a0000004e6f000067
:1030d0007274000068000000456100007374000015
:1030e000005300006f750000746800000057000076
:1030f0006573000074000000556e00006b6e0000e8
:103100006f7700006e0000002d2d00002d2d0000b7
:103110002d000000202000002020000020000000e2
:103120002b0000007c0000002b2d00002d2d000046
:103130002d2d0000000d000020430000656c0000f4
:103140006c20000028250000642c000020250000d1
:10315000642900003a0a0000000d00002020000051
:103160004e6f00007274000068200000576100007c
:103170006c6c00003a200000256400000a0000008a
:103180000d20000020450000617300007420000045
:10319000576100006c6c00003a2000002025000000
:1031a000640a0000000d000020200000536f0000a2
:1031b0007574000068200000576100006c6c00000e
:1031c0003a200000256400000a0000000d200000e5
:1031d0002057000065730000742000005761000054
:1031e0006c6c00003a20000020250000640a0000fa
:1031f000000d0000202000004469000073740000ee
:10320000616e0000636500003a200000202000008d
:10321000256400000a00000050610000746800008e
:1032200020660000726f00006d20000073740000c3
:103230006172000074200000746f000020740000b0
:103240006172000067650000743a0000000d000024
:1032500028250000642c00002025000064290000bf
:103260000a0000000d2000004d6f00007665000090
:10327000206c000065660000742000003120000012
:10328000636500006c6c000020280000776500007a
:1032900073740000290000000d2000004d6f000035
:1032a0007665000020720000696700006874000005
:1032b0002031000020630000656c00006c200000dd
:1032c000286500006173000074290000000d0000f3
:1032d000204d00006f76000065200000666f000042
:1032e000727700006172000064200000312000004d
:1032f000636500006c6c0000202800006e6f000009
:103300007274000068290000000d0000204d0000cc
:103310006f7600006520000062610000636b0000b2
:10332000776100007264000020310000206300001b
:10333000656c00006c200000287300006f750000b1
:1033400074680000290000000d2000004d6f00008f
:103350007665000020620000616300006b7700006a
:1033600061720000642000003120000063650000ed
:103370006c6c00002028000077650000737400006a
:10338000290000000d2000004d6f00007665000050
:10339000206600006f720000776100007264000018
:1033a0002031000020630000656c00006c200000ec
:1033b00028650000617300007429000000630000ac
:1033c00075720000726500006e74000020780000c5
:1033d0003a200000256400002c20000063750000e6
:1033e00072720000656e000074200000793a0000df
:1033f00020250000642c0000206e0000657800008d
:10340000745800003a200000256400002c6e000073
:1034100065780000745900003a200000256400001f
:103420000a000000444f00004e450000212000002b
:1034300000000000ff000000ff000000ff0000008f
:10344000ff000000ff000000ff000000ff00000080
:10345000ff000000ff000000ff000000ff00000070
:10346000ff000000ff000000ff000000ff00000060
:10347000ff0000000d4d00006f7400006f7200002f
:1034800020310000202d0000205300007065000056
:10349000656400003a200000256400002c20000034
:1034a0004469000073740000616e000063650000f1
:1034b0003a200000256c000064090000000d0000a7
:1034c0004d6f0000746f0000722000003220000079
:1034d0002d2000005370000065650000643a000074
:1034e00020250000642c00002044000069730000c7
:1034f000746100006e630000653a00002025000042
:103500006c640000090000000d20000046720000fd
:103510006f6e000074200000776100006c6c00008a
:10352000203a000020250000642c000020520000fa
:10353000696700006874000020770000616c00007b
:103540006c2000003a200000256400002c200000c0
:103550004c6500006674000020770000616c00007c
:103560006c2000003a250000640900000000000003
:103570000d2000007265000074610000726400009c
:10358000000d0000206400006f6e00006520000048
:10359000666c00006167000020310000000d000033
:1035a000206400006f6e000065200000666c000063
:1035b0006167000020320000000d00002064000060
:1035c0006f6e000065200000666c000061670000ff
:1035d00020330000000d0000206400006f6e00002a
:1035e00065200000666c0000616700002034000068
:1035f000000d0000206400006f6e000065200000d8
:10360000666c00006167000020360000000d0000bd
:103610002068000065720000650000000d200000b9
:10362000646f00006e650000206600006c610000a1
:103630006720000037000000202500006420000003
:043640000000000086
:020000040000fa
:103644001200fa006007980071079800020f9800b2
:10365400ee009000210798007e0190003207980048
:103664002e009000c200dd003e009000008040006b
:103674008000400000a1200000804000100078007d
:103684004800de00400798002e009000c200dd00d4
:103694003e009000008040008000400000a1200017
:1036a4000080400090007800f00f2000008060004f
:1036b40050079800ae0090004e009000008050002b
:1036c4000000e0000300340050c4b300004f780051
:1036d40017003700ae0090004e00900000805000ac
:1036e4000000e00003003d0070c5b300004f780007
:1036f4000f003700be0090005e0090000080500074
:103704000000e00003003400e0c4b300004f780080
:1037140007003700be0090005e009000008050005b
:103724000000e00002003d0030c5b300004f780007
:103734008e08900011079800ad0037004e019000ec
:1037440022079800de009000310798002e009000b8
:10375400c200dd003e009000008040008000400078
:1037640000a1200000804000100078004800de0026
:10377400400798002e009000c200dd003e0090003b
:10378400008040008000400000a120000080400034
:1037940090007800f00f200000806000500798002f
:1037a400ae0090004e009000008050000000e00049
:1037b4001e003400e0c4b3009e40780080cf500067
:1037c40003003a00c0c6b300104798001400370045
:1037d40050c4b3009e40780080cf500003003a00ec
:1037e40060c6b300104798000d00370030c5b30021
:1037f4009e40780080cf500003003a0020c7b300f9
:10380400104798000600370070c5b3009e4078004a
:1038140080cf500002003a0020c6b3001047980041
:1038240050c4b300004f780068003700ae00900029
:103834004e009000008050000000e0001e003d009b
:10384400e0c4b3009e40780080cf500003003a00eb
:1038540020c7b300104798001400370050c4b300c9
:103864009e40780080cf500003003a0020c6b30089
:10387400104798000d00370030c5b3009e40780013
:1038840080cf500003003a00c0c6b3001047980030
:103894000600370070c5b3009e40780080cf50000a
:1038a40002003a0060c6b3001047980070c5b30028
:1038b400004f780045003700be0090005e00900085
:1038c400008050000000e0001e003400e0c4b3009b
:1038d4009e40780080cf500003003a0060c6b300d9
:1038e400104798001400370050c4b3009e4078007d
:1038f40080cf500003003a0020c7b300104798005f
:103904000d00370030c5b3009e40780080cf5000d2
:1039140003003a0020c6b3001047980006003700a1
:1039240070c5b3009e40780080cf500002003a007a
:10393400c0c6b30010479800e0c4b300004f78003d
:1039440022003700be0090005e009000008050000e
:103954000000e0001d003d00e0c4b3009e4078007c
:1039640080cf500003003a0020c6b30010479800ef
:103974001400370050c4b3009e40780080cf50003c
:1039840003003a00c0c6b300104798000d0037008a
:1039940030c5b3009e40780080cf500003003a0049
:1039a40060c6b300104798000600370070c5b30026
:1039b4009e40780080cf500002003a0020c7b30038
:1039c4001047980030c5b300004f78008e0890006f
:1039d4001e0090000080500001a920001e419000ac
:1039e400827078001e0090000000e9001007980023
:1039f4001e009000e10f500050ff3c00ae0090000c
:103a04004e009000008050000000e00028003400c8
:103a1400e0c4b3009e40780080cf500006003a0016
:103a24000e0890000000e90001a9200062c6b3005e
:103a340082707800a400370050c4b3009e40780020
:103a440080cf500006003a000e0890000000e90004
:103a540001a9200022c7b300827078009a003700c1
:103a640030c5b3009e40780080cf500006003a0075
:103a74000e0890000000e90001a9200022c6b3004e
:103a8400827078009000370070c5b3009e407800c3
:103a940080cf50008c003a000e0890000000e9002e
:103aa40001a92000c2c6b3008270780086003700e6
:103ab400ae0090004e009000008050000000e00036
:103ac40028003d00e0c4b3009e40780080cf500041
:103ad40006003a000e0890000000e90001a9200049
:103ae40062c6b300827078007700370050c4b30018
:103af4009e40780080cf500006003a000e089000e7
:103b04000000e90001a9200022c7b30082707800f8
:103b14006d00370030c5b3009e40780080cf500060
:103b240006003a000e0890000000e90001a92000f8
:103b340022c6b300827078006300370070c5b300fa
:103b44009e40780080cf50005f003a000e0890003d
:103b54000000e90001a92000c2c6b3008270780009
:103b640059003700be0090005e00900000805000b5
:103b74000000e00028003400e0c4b3009e40780058
:103b840080cf500006003a000e0890000000e900c3
:103b940001a9200062c6b300827078004a00370091
:103ba40050c4b3009e40780080cf500006003a0015
:103bb4000e0890000000e90001a9200022c7b3000c
:103bc400827078004000370030c5b3009e40780012
:103bd40080cf500006003a000e0890000000e90073
:103be40001a9200022c6b300827078003600370095
:103bf40070c5b3009e40780080cf500032003a0078
:103c04000e0890000000e90001a92000c2c6b3001c
:103c1400827078002c003700be0090005e00900097
:103c2400008050000000e00027003d00e0c4b30025
:103c34009e40780080cf500006003a000e089000a5
:103c44000000e90001a9200022c6b30082707800b8
:103c54001d00370050c4b3009e40780080cf500050
:103c640006003a000e0890000000e90001a92000b7
:103c7400c2c6b300827078001300370030c5b300a9
:103c84009e40780080cf500006003a000e08900055
:103c94000000e90001a9200062c6b3008270780028
:103ca4000900370070c5b3009e40780080cf5000f3
:103cb40005003a000e0890000000e90001a9200068
:103cc40022c7b300827078000080fa00000006006a
:103cd4000e00fa0010079800210798003207980098
:103ce40043079800244f980065079800be00900091
:103cf4001e009000808f50001e003400ae489000db
:103d0400e0c4b30080cf500003003a006e0090007e
:103d1400b400070014003700ae48900030c5b3006b
:103d240080cf500003003a006e009000e1000700cd
:103d34000d003700ae48900050c4b30080cf50004f
:103d440003003a006e0090000e01070006003700e1
:103d5400ae48900070c5b30080cf500002003a0016
:103d64006e0090006b00070050c4b300004f780051
:103d740065003700be0090001e009000808f500048
:103d84001e003d00ae489000e0c4b30080cf500058
:103d940003003a006e009000c600070014003700cc
:103da400ae48900030c5b30080cf500003003a0005
:103db4006e0090008b0007000d003700ae489000a5
:103dc40050c4b30080cf500003003a006e0090004e
:103dd4005000070006003700ae48900070c5b300dd
:103de40080cf500002003a006e009000e50007000a
:103df40070c5b300004f780043003700ce00900038
:103e04002e009000808f50001e003400ae489000b9
:103e1400e0c4b30080cf500003003a006e0090006d
:103e2400d800070014003700ae48900030c5b30036
:103e340080cf500003003a006e0090003500070068
:103e44000d003700ae48900050c4b30080cf50003e
:103e540003003a006e009000960007000600370049
:103e6400ae48900070c5b30080cf500002003a0005
:103e74006e0090005b000700e0c4b300004f7800c0
:103e840021003700ce0090002e009000808f50005b
:103e94001d003d00ae489000e0c4b30080cf500048
:103ea40003003a006e0090001a0007001400370067
:103eb400ae48900030c5b30080cf500003003a00f4
:103ec4006e009000af0007000d003700ae48900070
:103ed40050c4b30080cf500003003a006e0090003d
:103ee4004000070006003700ae48900070c5b300dc
:103ef40080cf500002003a006e0090006d00070071
:103f040030c5b300004f78001e4078000080fa00ee
:103f1400000006000000fa00d0428000cf80de00de
:103f24006109b90004082f00a52f20006033b800f0
:103f3400d3f40700843e2000050020006033b8005d
:103f440066f407000000be0070170700e7110700c1
:103f540000000000b04280000000e000fdff3a00d5
:103f6400d0428000cf80de006109b90004082f0030
:103f7400a52f20006033b800c1f40700843e200060
:103f8400050020006033b80054f407000000be00b0
:103f94005e1707004e11070000000000b0428000c9
:103fa4000000e000fdff3a00d0428000cf80de0038
:103fb4006109b90004082f00a52f20006033b80060
:103fc400aff40700843e2000050020006033b800f1
:103fd40042f407000000be004c1707000080fa00fe
:103fe400000006000000fa00d0428000cf80de000e
:103ff4006109b90004082f00a52f20006033b80020
:104004009ff40700843e2000050020006033b800c0
:1040140032f407000000be003c1707005c110700e3
:1040240000000000b04280000000e000fdff3a0004
:10403400d0428000cf80de006109b90004082f005f
:10404400a52f20006033b8008df40700843e2000c3
:10405400050020006033b80020f407000000be0013
:104064002a1707001a11070000000000b042800060
:104074000000e000fdff3a00d0428000cf80de0067
:104084006109b90004082f00a52f20006033b8008f
:104094007bf40700843e2000050020006033b80054
:1040a4000ef407000000be00181707000080fa0095
:1040b400000006000000fa00d0428000cf80de003d
:1040c4006109b90004082f00a52f20006033b8004f
:1040d4006bf40700843e2000050020006033b80024
:1040e400fef307000000be00081707005511070083
:1040f40000000000b04280000000e000fdff3a0034
:10410400d0428000cf80de006109b90004082f008e
:10411400a52f20006033b80059f40700843e200026
:10412400050020006033b800ecf307000000be0077
:10413400f6160700e610070000000000b0428000f9
:104144000000e000fdff3a00d0428000cf80de0096
:104154006109b90004082f00a52f20006033b800be
:1041640047f40700843e2000050020006033b800b7
:10417400daf307000000be00e41607000080fa002e
:10418400000006000000fa00d11007000000000043
:10419400b04280000000e000fdff3a00d042800001
:1041a400cf80de006109b90004082f00a52f20008c
:1041b4006033b80032f40700843e2000050020007c
:1041c4006033b800c5f307000000be00cf16070037
:1041d4000080fa00000006000800fa00200798009a
:1041e400310798002e009000c200dd003e009000d0
:1041f4000080400080004000009f200000804000bc
:104204009000780000002100008060000000e000c1
:104214005f003a002e009000c200dd003e009000d6
:104224000080400080004000009f2000008040008b
:1042340090007800f07f2000008f60003e00900026
:104244000000e800ae009000c208dd0000804000dd
:1042540080004000009f2000008040009000780013
:10426400f07f2000008060000000e80080007800fb
:104274001e00780062030700100798001e009000db
:104284009e0f500042003d002e009000c200dd0051
:104294003e0090000080400080004000009f20000d
:1042a40000804000100078008000780000802f001b
:1042b400808060001e009000010070008000780083
:1042c4002e0090004201dd003e00900000004100fd
:1042d40000014000009f2000000041000108780018
:1042e4002e009000c200dd003e00900000804000df
:1042f4008000400000a12000008040009000780071
:10430400f00f2000808060002e0090004800dd0047
:10431400810070002e0090004201dd003e009000fc
:10432400000041000001400000a120000000410005
:10433400010878002e009000c200dd003e009000cd
:10434400008040008000400000a120000080400068
:10435400100078008000780000f02f00808060005a
:104364003e0090000000e80001007000800078002a
:104374002e0090004201dd003e009000000041004c
:104384000001400000a12000000041000108780065
:104394000080fa00000006000800fa0020079800d8
:1043a400310798002e009000c200dd003e0090000e
:1043b4000080400080004000009f200000804000fa
:1043c4009000780000002200008060000000e000ff
:1043d4005f003a002e009000c200dd003e00900015
:1043e4000080400080004000009f200000804000ca
:1043f40090007800f07f2000008f60002e00900075
:104404000000e800c200dd003e0090000080400093
:1044140080004000009f2000008040009000780051
:10442400f07f2000008060000000e8008000780039
:104434001e007800f2020700100798001e0090008a
:104444009e0f500042003d002e009000c200dd008f
:104454003e0090000080400080004000009f20004b
:1044640000804000100078008000780000802f0059
:10447400808060001e0090000100700080007800c1
:104484002e0090004201dd003e009000000041003b
:1044940000014000009f2000000041000108780056
:1044a4002e009000c200dd003e009000008040001d
:1044b4008000400000a120000080400090007800af
:1044c400f00f2000808060002e0090000000e800c3
:1044d4004800dd00810070002e0090004201dd00e4
:1044e4003e009000000041000001400000a12000b7
:1044f40000004100010878002e009000c200dd0099
:104504003e009000008040008000400000a1200098
:1045140000804000100078008000780000f02f0038
:10452400808060003e0090000100700080007800f0
:104534002e0090004201dd003e009000000041008a
:104544000001400000a120000000410001087800a3
:104554000080fa00000006000800fa002007980016
:10456400310798002e009000c200dd003e0090004c
:104574000080400080004000009f20000080400038
:104584009000780000002400008060000000e0003b
:104594005f003a002e009000c200dd003e00900053
:1045a4000080400080004000009f20000080400008
:1045b40090007800f07f2000008f60003e009000a3
:1045c4000000e900ae009000c208dd000080400059
:1045d40080004000009f2000008040009000780090
:1045e400f07f2000008060000000e8008000780078
:1045f4001e00780082020700100798001e00900039
:104604009e0f500042003d002e009000c200dd00cd
:104614003e0090000080400080004000009f200089
:1046240000804000100078008000780000802f0097
:10463400808060001e0090000100700080007800ff
:104644002e0090004201dd003e0090000000410079
:1046540000014000009f2000000041000108780094
:104664002e009000c200dd003e009000008040005b
:104674008000400000a120000080400090007800ed
:10468400f00f2000808060002e0090004800dd00c4
:10469400810070002e0090004201dd003e00900079
:1046a400000041000001400000a120000000410082
:1046b400010878002e009000c200dd003e0090004a
:1046c400008040008000400000a1200000804000e5
:1046d400100078008000780000f02f0080806000d7
:1046e4003e0090000000e9000100700080007800a6
:1046f4002e0090004201dd003e00900000004100c9
:104704000001400000a120000000410001087800e1
:104714000080fa00000006000800fa002007980054
:10472400310798002e009000c200dd003e0090008a
:104734000080400080004000009f20000080400076
:10474400100078000000e0005f0035002e009000ab
:10475400c200dd003e009000008040008000400068
:10476400009f20000080400090007800f07f20002f
:10477400008f60002e0090000000e900c200dd0000
:104784003e0090000080400080004000009f200018
:104794000080400090007800f07f200000806000de
:1047a4000000e800800078001e0078001402070072
:1047b400100798001e0090009e0f500042003d001c
:1047c4002e009000c200dd003e00900000804000fa
:1047d40080004000009f200000804000100078000e
:1047e4008000780000802f00808060001e00900010
:1047f40001007000800078002e0090004201dd006e
:104804003e0090000000410000014000009f200095
:1048140000004100010878002e009000c200dd0075
:104824003e009000008040008000400000a1200075
:104834000080400090007800f00f2000808060002d
:104844002e0090000000e9004800dd0081007000a7
:104854002e0090004201dd003e0090000000410067
:104864000001400000a12000000041000108780080
:104874002e009000c200dd003e0090000080400049
:104884008000400000a1200000804000100078005b
:104894008000780000f02f00808060003e009000cf
:1048a40001007000800078002e0090004201dd00bd
:1048b4003e009000000041000001400000a12000e3
:1048c40000004100010878000080fa0000000600a2
:1048d4000600fa0010079800210798000000eb007a
:1048e400000f78001e009000c200dd002e00900032
:1048f4000080400080004000009f200000804000b5
:104904009000780000002100008060000000e000ba
:104914000f003a002e0090000000e8009e00900076
:10492400c208dd000080400080004000009f20009d
:10493400008040009000780000802000008060002b
:104944000000e00002003a0010002000000f780090
:104954001e0078000080fa00000006000600fa003d
:1049640010079800210798000000eb00000f780062
:104974001e009000c200dd002e0090000080400068
:1049840080004000009f20000080400090007800dc
:1049940000002200008060000000e0000f003a00e8
:1049a4001e0090000000e800c200dd002e00900010
:1049b4000080400080004000009f200000804000f4
:1049c4009000780000802000008060000000e0007b
:1049d40002003a0010002000000f78001e0078004a
:1049e4000080fa00000006000600fa001007980094
:1049f400210798000000eb00000f78001e009000d3
:104a0400c200dd002e0090000080400080004000c5
:104a1400009f2000008040009000780000002400e7
:104a2400008060000000e0000f003a002e009000bb
:104a34000000e9009e009000c208dd0000804000f4
:104a440080004000009f200000804000900078001b
:104a540000802000008060000000e00002003a00b6
:104a640010002000000f78001e0078000080fa007b
:104a7400000006000600fa001007980021079800bd
:104a84000000eb00000f78001e009000c200dd0063
:104a94002e0090000080400080004000009f200015
:104aa40000804000100078000000e0000f00350096
:104ab4001e0090000000e900c200dd002e009000fe
:104ac4000080400080004000009f200000804000e3
:104ad4009000780000802000008060000000e0006a
:104ae40002003a0010002000000f78001e00780039
:104af4000080fa00000006000000fa00871007009a
:104b04000080fa00000006000000fa00921007007e
:104b14000080fa00000006000000fa009d10070063
:104b24000080fa00000006000200fa000000eb001a
:104b3400000f780008003700150020000002eb0089
:104b44008001eb00e2042000510020001e007800e8
:104b5400c70707001e0fe8001e007800e30f50008f
:104b6400f5ff34000000eb00000f78000800370068
:104b7400150020000002eb008001eb00320520004c
:104b84008000eb001e007800b90707001e0fe80044
:104b94001e007800e30f5000f5ff34000000eb0026
:104ba400000f780008003700150020000002eb0019
:104bb4008001eb00520420009e0078005000200089
:104bc400ab0707001e0fe8001e007800e30f50003b
:104bd400f5ff34000000eb00000f780008003700f8
:104be400150020000002eb008001eb00720520009c
:104bf4009e0078000000eb009d0707001e0fe800f0
:104c04001e007800e30f5000f5ff34000000eb00b5
:104c1400000f780008003700150020000002eb00a8
:104c24008001eb00e2042000410020001e00780017
:104c34008f0707001e0fe8001e007800e30f5000e6
:104c4400f5ff340030002000000f78000800370022
:104c5400150020000002eb008001eb00e2042000bc
:104c6400210020001e007800810707001e0fe800c5
:104c74001e007800e40f5000f5ff340010002000ff
:104c8400000f780008003700150020000002eb0038
:104c94008001eb00e20420008000eb001e0078009d
:104ca400730707001e0fe8001e007800e40f500091
:104cb400f5ff340010002000000f780008003700d2
:104cc400150020000002eb008001eb0052042000dc
:104cd4009e00780040002000650707001e0fe800d2
:104ce4001e007800e10f5000f5ff34001000200092
:104cf400000f780008003700150020000002eb00c8
:104d04008001eb00520420009e0078003000200057
:104d1400570707001e0fe8001e007800e10f50003f
:104d2400f5ff340020002000000f78000800370051
:104d3400150020000002eb008001eb00520420006b
:104d44009e00780010002000490707001e0fe800ad
:104d54001e007800e30f5000f5ff3400100020001f
:104d6400000f780008003700150020000002eb0057
:104d74008001eb00520420009e0078000000eb004c
:104d84003b0707001e0fe8001e007800e40f5000e8
:104d9400f5ff34000080fa00000006000400fa0069
:104da4000000eb00000f7800600037000000eb000b
:104db40010079800550037001e007800c200dd007f
:104dc4001e0090000080400080004000009f2000f2
:104dd4000080400090007800000024000080600003
:104de4000000e00005003200807c2900801f78006c
:104df400d3f107008f87e90004003700c07c290045
:104e0400801f7800cef107008f87e9001e0078002c
:104e1400c200dd001e0090000080400080004000c1
:104e2400009f200000804000100078000000e00097
:104e340005003d00007d2900801f7800c0f10700b7
:104e44008f87e90004003700c07c2900801f7800a8
:104e5400bbf107008f87e9001e007800c200dd0067
:104e64001e0090000080400080004000009f200051
:104e74000080400090007800000022000080600064
:104e84000000e00005003200407d2900801f78000a
:104e9400abf107008f87e90004003700c07c2900cc
:104ea400801f7800a6f107008f87e9001e007800b4
:104eb400c200dd001e009000008040008000400021
:104ec400009f200000804000900078000000210036
:104ed400008060000000e00005003200807d2900b1
:104ee400801f780096f107008f87e90004003700df
:104ef400c07c2900801f780091f107008f87e900aa
:104f04001e0090000000e800100798001e009000aa
:104f1400e30f5000a8ff3400a0002000b4f1070004
:104f2400a0002000b2f107001e0fe8001e00780068
:104f3400e30f50009dff34000080fa0000000600db
:104f44000400fa000000eb00000f78002500370091
:104f54000000eb00100798001c0037001e007800ca
:104f6400c200dd001e009000008040008000400070
:104f740000a120000080400090007800f00f200085
:104f8400808060001e0078004201dd001e00900059
:104f9400000041000001400000a120000000410089
:104fa400100078004800de00811f7800801f780020
:104fb400c07d2900801f78006af10700e68757004a
:104fc4001e0090000000e800100798001e009000ea
:104fd400e30f5000e1ff3400a000200084f107003b
:104fe4001e0fe8001e007800e30f5000d8ff3400c5
:104ff400f07e290081f107000080fa00000006001d
:105004000400fa00000f7800110798009e00780051
:105014001e009000810f5000010034000100780050
:105024000080fa00000006000600fa00200798003d
:105034000000eb00100798000b0037000000eb00a5
:10504400000f7800010037001e0fe800f0e1240093
:105054009e007800808f5000fbff34001e009000fb
:105064000000e800100798009e0090002e009000b9
:10507400808f5000f1ff35000080fa000000060028
:105084000200fa00000f78001e0078008080eb0018
:10509400012098001e0078008080eb001120980009
:1050a4000080fa00000006000200fa00000f7800f9
:1050b4001e007800802090000080eb0000806800d3
:1050c40000f0a7000000ea000000e9004f00de0045
:1050d4000080fa00000006000200fa00000f7800c9
:1050e4001e007800102090008000e800f0002800e6
:1050f400008060000000e00004003d000000e900c2
:1051040001ff2f00008070000000e800800078009c
:105114001e007800002090000080680000f0a700c6
:105124000000ea000000e9004f00de000080fa0001
:10513400000006000600fa00000f7800110798002e
:10514400220798001e007800e3ff07000000e0003b
:1051540003003200307f290028f1070024003700c3
:105164001e00780000209000e10f400003003a0088
:105174001e0078008000eb00012098001e007800db
:10518400102090008000e800f000280000806000fb
:105194000000e00004003d000000e90001ff2f00d2
:1051a400008070000000e800800078001e00780095
:1051b400112098001e007800102090009e007800b6
:1051c4004200dd00008040009e009000010878004d
